:020000040800F2
:1000000098CE002081020008BD4C0008ED42000897
:10001000B94C0008750B0008755E00080000000070
:10002000000000000000000000000000C101000806
:10003000810E0008000000001D0200084552000863
:100040009B0200089B0200089B0200089B0200081C
:100050009B0200089B0200089B0200089B0200080C
:100060009B0200089B0200089B0200089B020008FC
:10007000410C00089B020008510C00089B0200087C
:10008000610C0008710C00089B0200089B0200082C
:10009000790B00089B0200089B020008830E0008F1
:1000A0009B0200089B0200089B0200089B020008BC
:1000B000995300089B0200089B0200089B0200085D
:1000C0009B0200089B0200089B0200089B0200089C
:1000D0009B020008455E0008555E0008655E00084A
:1000E0009B0200089B0200089B0200089B0200087C
:1000F0009B0200089B0200089B0200089B0200086C
:100100009B0200089B0200089B0200089B0200085B
:100110009B0200089B020008A9530008B95300087D
:100120009B0200089B020008810C00089B0200084B
:100130009B0200089B0200089B0200089B0200082B
:10014000890B00089B0200089B0200089B02000824
:100150009B0200089B0200089B0200089B0200080B
:100160009B0200089B0200089B0200089B020008FB
:100170009B0200089B0200089B0200080000000090
:100180009B0200089B0200083558000845580008EB
:100190009B0200089B0200089B0200089B020008CB
:1001A0009B0200089B0200089B020008DFF80CD0AD
:1001B00000F034FC004800473D77000898CE00204E
:1001C0002C4B19680868B0E8F04F80F30988BFF33A
:1001D0006F8F4FF0000080F311887047000000001F
:1001E00008480068006880F308884FF0000080F33A
:1001F000148862B661B6BFF34F8FBFF36F8F00DF15
:1002000000BF00BF08ED00E0DFF80C00016841F41A
:1002100070010160704700BF88ED00E0EFF30980D6
:10022000BFF36F8F134B1A681EF0100F08BF20ED3D
:10023000108A20E9F04F106009B44FF0500080F3AD
:100240001188BFF34F8FBFF36F8F08F0CFFC4FF0D3
:10025000000080F3118809BC19680868B0E8F04F05
:100260001EF0100F08BFB0EC108A80F30988BFF3AE
:100270006F8F704718000020EFF305807047000073
:100280000648804706480047FEE7FEE7FEE7FEE730
:10029000FEE7FEE7FEE7FEE7FEE7FEE73553000870
:1002A000AD0100082DE9F05F0546002092469B460F
:1002B00088460646814640241BE02846414647467C
:1002C000224600F05DFA53465A46C01A914110D3B7
:1002D00011461846224600F044FA2D1A67EB010831
:1002E0004F4622460120002100F03BFA17EB00099F
:1002F0004E41201EA4F10104DFDC484631462A4667
:100300004346BDE8F09F40EA01039B0703D009E0A4
:1003100008C9121F08C0042AFAD203E011F8013BF1
:1003200000F8013B521EF9D27047D2B201E000F84A
:10033000012B491EFBD270470022F6E710B5134689
:100340000A4604461946FFF7F0FF204610BD2DE986
:10035000FE4F804681EA0300C00F0C46009021F05A
:10036000004123F00045B8EB0200A94105D2404608
:10037000214690461C460B46024623F0004010439F
:1003800047D0270DC7F30A00C3F30A510290401A61
:10039000019040286BDAC3F3130040F4801B0098EF
:1003A000924620B10023D2EB030A63EB0B0B0198BA
:1003B0005946C0F14002504600F0D3F906460D46BA
:1003C00050465946019A00F0EBF910EB08006141E4
:1003D000002487EA115284EAE7731A4340D0009A56
:1003E00062B3019A012A4FEA075215DC001B61EB48
:1003F00002014FF0004202EA0752CDE90042001C20
:1004000041F5801132462B4600F022FA03B0BDE8D8
:10041000F08F40462146F9E7001B61EB0201001C0A
:1004200041F5801300185B412018A2F5001747EB37
:10043000030140EAD570B6196D4111E06D084FEA2D
:10044000360645EAC0754FEA0752001B61EB020110
:10045000001C41F5801149084FEA30000019514154
:1004600032462B4603B0BDE8F04F00F0E2B90098E9
:10047000012240000023D0EB020263EBE0730098FE
:1004800021464FEAE074B8EB000061EB0401E9E7B4
:1004900083F000435BE781F0004158E72DE9FE4F10
:1004A00081EA030404F0004421F0004100944FF07D
:1004B000000B23F0004350EA01045ED052EA03042B
:1004C0005BD0C3F30A54C1F30A552C44A4F2F334AD
:1004D0000194A0FB0254C1F3130141F48011C3F352
:1004E000130343F4801301FB024400FB034E840A10
:1004F000970A44EA815447EA8357A4FB07680295A8
:100500008D0A05FB07854FEA932C04FB0C54270545
:10051000029D4FEA065847EA1637B5EB08056EEB21
:10052000070C870E920E47EA811742EA8312A7FB57
:100530000201B6EB0B0164EB00042B0D43EA0C3314
:100540005E1844EB1C50DA465146E7FB0201C5F346
:1005500013044FEA0B3343EA14534FEA0432019C6D
:1005600043EA0603A4F10C040294009CCDE900B414
:1005700000F06EF903B0BDE8F08F00200146F9E706
:100580002DE9F04D81EA030404F0004B21F0004511
:1005900014464FF0000A23F0004150EA050220D033
:1005A00054EA01021DD0C5F30A570246C5F31303EE
:1005B000C1F31300C1F30A5640F4801543F48013CD
:1005C000A7EB0608101BD64608F2FD3873EB0500B2
:1005D00002D308F1010801E092185B41B8F1000F65
:1005E00003DA00200146BDE8F08D00204FF48011B1
:1005F000064684460EE0171B73EB050705D3121B56
:1006000063EB050306434CEA010C49084FEA30004E
:1006100092185B4150EA0107EDD152EA030012D073
:1006200082EA040083EA0501084305D0101BAB41B0
:1006300006D20122002306E000224FF0004302E030
:100640006FF0010253101AEB06004CEB085110EB4F
:100650000A0041EB0B01BDE8F04D00F0EAB80EB521
:10066000C10F80EAE0700844CA07002140F233431A
:100670008DE80E000A460B4600F0EAF803B000BD14
:100680000EB540F2334102910021CDE900110A4636
:100690000B4600F0DDF803B000BD70B5C1F30A529F
:1006A00001F000450024C1F3130140F2FF3341F48F
:1006B00080119A4201DA002070BD40F233439A4221
:1006C000A2F2334203DC524200F05AF800E09040BC
:1006D0002C43F1D0404270BD00F0004230F00040A9
:1006E0000AD0C10D01F56071C0F3160042EA015154
:1006F000C20840071143704700200146704701F0CF
:10070000004330B421F0004150EA010206D00A0D46
:10071000A2F56072C1F31301002A02DC30BC002094
:100720007047440F44EAC104C100E01830BC00EB3C
:10073000C25000F047B830B50B46014600202022D9
:10074000012409E021FA02F59D4205D303FA02F5DE
:10075000491B04FA02F52844151EA2F10102F1DC3E
:1007600030BD202A04DB203A00FA02F10020704755
:100770009140C2F1200320FA03F3194390407047DF
:10078000202A04DB203A21FA02F00021704721FAE6
:1007900002F3D040C2F1200291400843194670474D
:1007A000202A06DBCB17203A41FA02F043EAE07335
:1007B00006E041FA02F3D040C2F120029140084322
:1007C000194670470029A8BF7047401C490008BF60
:1007D00020F00100704710B4B0FA80FC00FA0CF071
:1007E00050EA010404BF10BC704749B1CCF12004A9
:1007F00021FA04F411FA0CF118BF01212143084336
:10080000A3EB0C01CB1D4FEA00614FEA102042BF61
:10081000002010BC704700EBC35010440029A4BF57
:1008200010BC7047401C490008BF20F0010010BCFC
:10083000704710B5141E73F1000408DA401C41F132
:10084000000192185B411A4301D120F0010010BD54
:100850002DE9F04D92469B4611B1B1FA81F202E0CA
:10086000B0FA80F220329046FFF77BFF04460F4635
:1008700040EA0A0041EA0B0153465A46084313D0A6
:10088000114653EA010019D0C8F140025046FFF763
:1008900077FF05460E46504659464246FFF761FF30
:1008A000084305D0012004E020463946BDE8F08D1C
:1008B0000020054346EAE0762C4337430A98630557
:1008C000E40AA0EB08000022FD0A44EA47540A307B
:1008D00002D500200146E9E7010510196941DDE96B
:1008E000084500196941BDE8F04DA2E770B521F057
:1008F000004303430CD0C1F30A550024D5EB040593
:1009000064EB0403D617AD1AB34102DB00200146A5
:1009100070BD201841EB025170BD2DE9F04D002350
:100920001A461B1A8A4103DB00200146BDE8F08D00
:10093000C1F30A52C1F3130141F480154FF0000BCB
:10094000D10702D100186D41521E0027044640F223
:10095000FF11384601EB620A3E46804602460020FF
:100960004FF48011FFF70CFFC2197141BB1846EB21
:100970000100B4EB030C75EB000C04D3E41A65EB37
:10098000000517460E46241908F101006D41804606
:100990003428E3DDF91946EB0600091BA84103D210
:1009A0004FF0FF32134601E0002213461BEB070015
:1009B00046EB0A51BDE8F04DFFF73BBFC1F30A52C9
:1009C000C1F3130140F2FF3341F480119A4202DA7D
:1009D00000200146704740F233439A42A2F233426C
:1009E00002DC5242FFF7CCBEFFF7BBBE30B5041E9F
:1009F00071F1000404DB4FF00044404264EB01015C
:100A0000141E73F1000405DB1C464FF000435242F4
:100A100063EB0403994208BF904230BD064C074D7A
:100A200006E0E06840F0010394E8070098471034BE
:100A3000AC42F6D3FFF7BEFB189A0008389A0008BC
:100A400030B58C1810F8012B12F00F0301D110F8FB
:100A5000013B120906D110F8012B03E010F8015BED
:100A600001F8015B5B1EF9D101E001F8013B521E68
:100A7000FBD1A142E6D3002030BD000010B50446F2
:100A80003049206888420BD1102006F097FE2E498D
:100A900008600846006808B9012010BD0020FCE786
:100AA0002A49206888420BD1102006F087FE284989
:100AB00008600846006808B90120EEE70020ECE76E
:100AC0002449206888420BD1102006F077FE224985
:100AD00008600846006808B90120DEE70020DCE76E
:100AE0001E49206888420BD1102006F067FE1C4981
:100AF00008600846006808B90120CEE70020CCE76E
:100B00001849206888420BD1102006F057FE16497C
:100B100008600846006808B90120BEE70020BCE76D
:100B20001249206888420BD1102006F047FE104978
:100B300008600846006808B90120AEE70020ACE76D
:100B40000120AAE7001001409C0000200044004062
:100B5000A000002000480040A40000200014014034
:100B6000A800002000780040AC000020007C00407D
:100B7000B000002000BFFEE710B5024800F07DFE87
:100B800010BD0000DC01002010B5024800F075FE29
:100B900010BD00000402002010B50446607C01284E
:100BA00012D10020607401220221084801F0BAFC31
:100BB0000748B0F9000006F037FE00220221034882
:100BC00001F0B0FC012010BD0020FCE70000024055
:100BD0007C01002070B504460D460CB9012070BDA3
:100BE000002020806080A080E08020726072A08160
:100BF0000021E1812182A174E17421756175E08297
:100C0000218344F8200F1720207155206071256141
:100C10002179203C0122284605F02EF918B1002048
:100C2000E0610120DBE70121E16204F1280004F02A
:100C30007BF9E06940F00100E0610020CFE70000AF
:100C400010B5024801F048F910BD00002C06002044
:100C500010B5024801F040F910BD0000AC040020BE
:100C600010B5024801F038F910BD0000CC05002095
:100C700010B5024801F030F910BD00000C0500204D
:100C800010B5024801F028F910BD00006C050020E5
:100C90000146087810381823B0FBF3F20848805C4E
:100CA000C865032A05D908686FF30900001D886527
:100CB00003E008686FF309008865886D70470000DD
:100CC000F4980008014600208A6A8B69CBB932B1DA
:100CD000012A0DD0022A03D0032A10D10EE000BF52
:100CE000CB6A03F08073B3F1807F00D1012007E06D
:100CF000CB6AB3F1C07F00D1012001E000E000BF6A
:100D000034E08B69B3F5005F1AD132B1012A07D004
:100D1000022A03D0032A11D10AE000BF01200EE00D
:100D2000CB6A03F08073B3F1807F00D1012006E02D
:100D3000CB6AB3F1C07F00D1012000E000BF15E015
:100D400032B1012A05D0022A04D0032A0CD103E0D3
:100D500000BF00BF012008E0CB6A03F08073B3F14D
:100D6000807F00D1012000E000BF00BF704730B598
:100D70000468246824F4802405682C600468636097
:100D80008468402C04D10468A2600468E16003E038
:100D90000468A1600468E26030BD0FB42DE9F84F2B
:100DA00080469DF82C0000EB4000001DC5B20027D6
:100DB00005F10409484606F001FD04469DF82C00A3
:100DC0004FEA400A4FEA4A0006F0F8FC06460CA833
:100DD0000090002006E0009931F8042B009126F8DD
:100DE0001020401C9DF82C1049008142F3DCFF20AC
:100DF00020706070FE20A070E570832020711E209E
:100E000060710220A071002018E0410016F8112046
:100E100000EB4001C91D62544100491C16F8112025
:100E200000EB4001083162544100491C36F81110B2
:100E30000A1200EB400109316254401C9DF82C104D
:100E40008842E2DB002004E0811C615C39448FB2FF
:100E5000401C691C8842F7DBF843C1B2E81C2154EE
:100E600014232A1D2146404603F0D4F9304606F0EB
:100E70002FFC204606F02CFCBDE8F80F5DF814FBB3
:100E8000704710B5402001F031FA10BD70470000E6
:100E9000044A416852F82110491C024B426843F849
:100EA00022107047ACB700200146002012E00B4A28
:100EB00052F8202062B10A4A52F8202002EB820246
:100EC000064B53F820301A600022054B43F82020CF
:100ED000421CD0B21E28EADB7047000034B7002065
:100EE000ACB7002038B50024084800680090002204
:100EF0000121684606F0C2FC05490860C821044883
:100F0000006806F0CFFC044638BD000014990008C4
:100F100004010020F0EE400ABBEE0F0AF4EEC00A16
:100F2000F1EE10FA06DBB3EE0F0AF4EEC00AF1EEB2
:100F300010FA02D99FED020A7047B0EE600AFBE793
:100F4000000020420146084A0868904202D1074842
:100F500000687047064A0868904202D10548006858
:100F6000F7E70020F5E7000000640040940000204F
:100F700000680040980000200146B1F5E16F03DBF6
:100F800040F6B930814202DD40F207407047084622
:100F9000FCE700000048704724B800200146164ACC
:100FA0000868904202D1154800687047144A0868E2
:100FB000904202D113480068F7E7134A086890424C
:100FC00002D112480068F0E7114A0868904202D145
:100FD00010480068E9E7104A0868904202D10F48BB
:100FE0000068E2E70E4A0868904202D10D480068A6
:100FF000DBE70020D9E70000001001409C00002042
:1010000000440040A000002000480040A400002050
:1010100000140140A800002000780040AC0000202F
:10102000007C0040B000002010B52DED028B84B094
:101030000446FE484078072815D2DFE800F0041582
:101040002A5EB7FEFD009FEDFA0AFA4880ED000A1D
:101050000020F9490880F54948749FEDF50A40F2EF
:10106000074003F077FFFBE2F04803F0B1FAF348E2
:10107000B0F900000121CDE90010F148B0F90030CD
:1010800000220221EF48FFF788FEE848FFF784FDC1
:10109000E6E2E64803F09CFAE449B1F91400FFF7F0
:1010A0006BFFE54908809FEDE20AFFF733FFE14857
:1010B00080ED000AE048008890B1DC48407C0128BF
:1010C0000ED1DC4890ED000ADB48B0F9000003F0D7
:1010D00041FF4FF4487006F0A7FBD448FFF75CFDD2
:1010E000D94800780090D148B0F91410D648037858
:1010F0000278D6A004F020FFB2E2CC4803F068FAF0
:10110000CA49B1F91400FFF737FFCB490880C74837
:10111000D0ED060AB0EE600AFFF7FCFEC54880ED90
:10112000000AC5480088E0B1C24890ED000ADFED32
:10113000CB0AB4EE600AF1EE10FA12D0BB48407C44
:1011400001280ED1BB4890ED000ABB48B0F9000061
:1011500003F000FF4FF4487006F066FBB348FFF75A
:101160001BFDB94800780090B048B0F91410B6489B
:1011700003780278B5A004F0DFFEAC4890ED060AD3
:1011800010EE101A0846FFF7A7FA41EC180BAE480C
:101190000078AD490978AC4A1278CDE90021029077
:1011A00053EC182BAEA004F0C7FE59E29F48407CD8
:1011B00001287DD1AF48407A01287AD1AE48B0F9F4
:1011C000000006F031FBAB49B1F9040003F0B4FDB7
:1011D000AA48D0ED000A30EEC00AF0EE401AFFF740
:1011E00099FEA74880ED000A90ED000A40F2074002
:1011F00003F0B0FEA348B0F9000006F015FBA248CA
:10120000B0F90000A149B1F90010884229DA9948E3
:10121000B0F9040000EE100AB8EEC00A9C48D0ED08
:10122000000AF1EE600AB4EEE00AF1EE10FA18DB03
:101230009048B0F9040001E0D0E1A8E000EE100A07
:10124000B8EEC00A9248D0ED000AB4EEE00AF1EE22
:1012500010FA06D88C480088401C00B28A490880E1
:1012600094E08A48B0F90000401E8749B1F90010A7
:10127000884223DC7F49B1F91400FFF77DFE6E49F7
:1012800008804FF47A7006F0CFFA7D4890ED000A9E
:101290006948B0F9000003F05DFE4FF4FA7006F003
:1012A000C3FA0020784908806048FFF775FC01E028
:1012B0005FE004E04FF4FA7006F0B6FA66E07548B5
:1012C0000088C0B95B4890ED000AF3EE0E0AB4EE58
:1012D000E00AF1EE10FA03DB01206E4908800AE013
:1012E000544890ED000A6C48D0ED000A30EE200A18
:1012F000504880ED000A67480088012818D14D4801
:1013000090ED000AFBEE0E0AB4EEE00AF1EE10FAE0
:1013100003D800205F4908800AE0464890ED000AA3
:101320005D48D0ED000A30EE600A424880ED000AC8
:10133000404890ED000AFFF7EDFD3E4880ED000AC1
:101340004C49B1F91400FFF717FE3B4908803948B2
:1013500090ED000ADFED410AB4EE600AF1EE10FAFA
:1013600014D090ED000A4D48B0F9000003F0F2FDF2
:101370000CE04FF47A7006F057FA9FED2D0A40F218
:10138000074003F0E7FD294803F022F968E1274808
:10139000407C012848D142480088C0B9254890EDDA
:1013A000000AF3EE0E0AB4EEE00AF1EE10FA03DBE7
:1013B00001203B4908800AE01E4890ED000A3648AB
:1013C000D0ED000A30EE200A1A4880ED000A3448B9
:1013D0000088012818D1174890ED000AFBEE0E0A8C
:1013E000B4EEE00AF1EE10FA03D800202C49088090
:1013F0000AE0104890ED000A2748D0ED000A30EED0
:10140000600A0C4880ED000A0A4890ED000AFFF7D8
:1014100081FD084880ED000A1649B1F91400FFF774
:10142000ABFD054908803DE081E0000070B8002078
:101430000000000058010020560100204E0100204D
:101440004C0100202C040020660100206E302E7616
:10145000616C3D25642563256325630000002042FF
:1014600074382E7478743D22252E32662225632529
:101470006325630058B80020600100202801002087
:101480005C01002062010020340100203E010020A8
:1014900044010020420100207001002024010020AE
:1014A00038010020714890ED000A5FED140AB4EE97
:1014B000600AF1EE10FA06D090ED000A6C48B0F91F
:1014C000000003F047FD6B48407A01283DD1674892
:1014D00090ED000A6848B0F9000003F03BFD654854
:1014E000B0F9040000EE100AB8EEC00A6348D0ED6F
:1014F000000AF1EE600AB4EEE00AF1EE10FA24DB25
:101500005C48B0F9040000EE100AB8EEC00A5B486F
:10151000D0ED000AB4EEE00AF1EE10FA15D8584802
:10152000FFF73AFB4FF4FA7006F07EF90DE05448ED
:1015300003F04EF8BBEE0E0A40F2074003F00AFD3E
:10154000BBEE0E0A494880ED000A4E48B0F9000093
:1015500000EE100AB8EEC00A9FED4B1AC0EE010A69
:101560009FED4A1A9FED4A0A10EE810A494880ED24
:10157000000A4948007800904148B0F914104648E4
:101580000378027845A004F0D7FC48480068FFF7CC
:10159000A3F841EC180B404800783F4909783E4ACF
:1015A0001278CDE90021029053EC182BAFF25010C5
:1015B00004F0C2FC37480068FFF78EF841EC180BC6
:1015C000354801780078344A1278CDE9002002913C
:1015D00053EC182B36A004F0AFFC41E0284802F091
:1015E000F7FF2748B0F91400B0F5FA6F27DB24485D
:1015F000B0F9140040F6C511884220DA2048B0F94D
:10160000140000EE100AF8EEC00A2E4890ED000A11
:101610002D4890ED001A01EE200ABDEEC00A10EE32
:10162000100A00B2144908801FED7F0A0846B0F97D
:10163000000003F08FFC4FF4487006F0F5F81048F6
:10164000FFF7AAFA1448007800901348037802784C
:101650000948B0F90010AFF20C2004F06DFC00BF97
:1016600000BF04B0BDEC028B10BD0000580100208B
:101670002401002058B80020560100204801002015
:1016800070B800201C010020000080450000B44319
:101690000A97054368010020660100206E312E760E
:1016A000616C3D25642563256325630028010020C6
:1016B00074352E7478743D22252E326622256325DA
:1016C00063256300780100207401002010B50446F2
:1016D00001221103064800F025FF9FED060A40F2A3
:1016E000074003F037FC0448006807F0FDF910BD1F
:1016F0000000024000000000C4010020704770B5E7
:10170000044694F82050012D01D0022D7CD151B90E
:101710002068C06800F0030080B9606A40F40010DF
:101720006062012070BD2068006900F0030028B9E4
:10173000606A40F4001060620120F3E7206800F561
:10174000D87000EB0110006800F004009060906811
:1017500040B9206800F5D87000EB01100068400D1A
:10176000106007E0206800F5D87000EB01100068F9
:10177000C0085060206800F5D87000EB01100068C8
:1017800000F002004008D060206800F5D87000EB3F
:101790000110406800F00F001061206800F5D8705B
:1017A00000EB0110406800F47F40000A906120685F
:1017B00000F5D87000EB01104068000C5061206803
:1017C00000F5D87000EB011080681870206800F5F3
:1017D000D87000EB0110806800F47F40000A587058
:1017E000206800F5D87000EB0110806800F47F00DD
:1017F000000C9870206800F5D87000EB011080682C
:10180000000ED870206800E031E000F5D87000EBE1
:101810000110C0681871206800F5D87000EB011045
:10182000C06800F47F40000A5871206800F5D87045
:1018300000EB0110C06800F47F00000C9871206874
:1018400000F5D87000EB0110C068000ED87131B9F6
:101850002068C06840F020002668F06005E020683D
:10186000006940F020002668306100205AE7606A75
:1018700040F480206062012054E72DE9F05F0446C7
:101880000025206846692068D0F8049020688768A1
:101890002068D0F80CA02068D0F810B02068D0F8EC
:1018A000188006F00100002855D007F00100C0B1F3
:1018B00001202168886007F0020018B1204600F07E
:1018C0009BFA0EE007F0040010B145F4006508E053
:1018D00007F0080010B145F4805502E0204600F002
:1018E0008AFA07F48070C8B14FF48070216888606C
:1018F00007F4007018B1204600F080FA0EE007F4FB
:10190000806010B145F4005508E007F4006010B1A4
:1019100045F4804502E0204600F06FFA07F480307D
:10192000C8B14FF480302168886007F4003018B1E6
:10193000204600F065FA0EE007F4802010B145F46F
:10194000004508E007F4002010B145F4803502E0BE
:10195000204600F054FA06F0080038B10AF01000F2
:1019600020B145F4007510202168C86006F004001D
:1019700040B10AF0080028B108202168C86020465C
:1019800000F00EFA06F0020038B12068C06800F0DE
:10199000030010B1204600F005FA06F0400038B10F
:1019A0000BF0100020B145F480651020216808611B
:1019B00006F0200040B10BF0080028B10820216893
:1019C0000861204600F014FA06F0100038B12068D3
:1019D000006900F0030010B1204600F00AFA06F496
:1019E000003040B109F0100028B110202168486093
:1019F000204600F0FFF906F4803040B109F00800FD
:101A000028B1082021684860204600F0FAF906F461
:101A1000004088B309F0040078B306F4807020B168
:101A200008F0010008B145F0010506F4007020B18E
:101A300008F0020008B145F0020506F4806020B10C
:101A400008F0040008B145F0040506F40060A0B1F8
:101A500008F0700088B108F07000402817D006DC4C
:101A600010280BD020280CD0302819D10CE0502899
:101A700010D0602814D110E01DE019E045F00805F1
:101A80000FE045F010050CE045F0200509E045F0B9
:101A9000400506E045F0800503E045F4807500E070
:101AA00000BF00BF2068806920F070002168886155
:101AB0000420216848602DB1606A28436062204696
:101AC000FFF71CFEBDE8F09F70B504460CB901207D
:101AD00070BD94F8200010B9204600F0AFF82068DF
:101AE000006820F002002168086000F021FD054632
:101AF0000DE000F01DFD401B0A2808D9606A40F483
:101B000000306062052084F820000120E0E72068B2
:101B1000406800F002000028EBD12068006840F027
:101B200001002168086000F003FD05460DE000F0AB
:101B3000FFFC401B0A2808D9606A40F4003060624C
:101B4000052084F820000120C2E72068406800F0EA
:101B500001000028EBD0207E012806D12068006813
:101B600040F080002168086005E02068006820F0EF
:101B7000800021680860607E012806D12068006826
:101B800040F040002168086005E02068006820F00F
:101B9000400021680860A07E012806D12068006806
:101BA00040F020002168086005E02068006820F00F
:101BB000200021680860E07E012806D120680068C6
:101BC00020F010002168086005E02068006840F0FF
:101BD000100021680860207F012806D12068006875
:101BE00040F008002168086005E02068006820F0E7
:101BF000080021680860607F012806D1206800681D
:101C000040F004002168086005E02068006820F0CA
:101C1000040021680860D4E90201084321690843EF
:101C2000616908436168491E08432168C861002052
:101C30006062012084F82000002049E710B586B0DA
:101C40000446142101A8FEF777FB4F49206888421B
:101C500041D14E480068401C4C4908600846006865
:101C600001280FD100BF002000904948006840F0D3
:101C70000070474908600846006800F00070009056
:101C800000BF00BF00BF002000904148103800682E
:101C900040F008003E49103908600846006800F02E
:101CA0000800009000BF00BF0320019002200290B6
:101CB00000200390032004900920059001A93548D5
:101CC00000F022FB00220621142000F0E1FC142089
:101CD00000F0CEFC55E030492068884251D100BF69
:101CE000002000902A48006840F080602849086081
:101CF0000846006800F08060009000BF00BF2348E5
:101D00000068401C214908600846006801280FD17E
:101D100000BF002000901E48006840F000701C4981
:101D200008600846006800F00070009000BF00BF27
:101D300000BF0020009016481038006840F00200F4
:101D40001349103908600846006800F0020000904E
:101D500000BF00BF4FF440500190022002900020CD
:101D60000390032004900920059001A90B4800F07E
:101D7000CBFA00220521402000F08AFC402000F030
:101D800077FC06B010BD0000006400400400002095
:101D900040380240000C024000680040000402404D
:101DA0007047000070B505462846FFF7CBF804469B
:101DB00004F15C0304F1180200212846FFF79FFCA0
:101DC00009492868884204D104F15C01A06905F042
:101DD0005FFC06492868884204D104F15C01A069CF
:101DE00005F055FC70BD0000006400400068004034
:101DF000704770477047704770477047704770472B
:101E00007047704770B50446A56D00F091FB06461B
:101E100094F83500022808D08020606500BF0020BB
:101E200084F8340000BF012070BD2068006820F0F5
:101E30001600216808602068406920F08000216851
:101E40004861206C08B9A06C28B12068006820F0B7
:101E50000800216808602068006820F001002168FF
:101E600008600FE000F064FB801B05280AD92020E1
:101E7000606500BF002084F8340000BF032084F8B0
:101E80003500D1E72068006800F001000028E9D1A2
:101E900094F85C103F208840A86000BF002084F8C0
:101EA000340000BF012084F835000020BCE7014663
:101EB00091F83500022803D0802048650120704742
:101EC000052081F835000868006820F001000A68E4
:101ED00010600020F3E70000F8B5044600200090F1
:101EE0008C4800684FF41651B0FBF1F7A56D2E68D1
:101EF00094F85C1008208840304098B12068006851
:101F000000F0040070B12068006820F0040021682F
:101F1000086094F85C1008208840A860606D40F06C
:101F20000100606594F85C1001208840304068B181
:101F30002068406900F0800040B194F85C100120F6
:101F40008840A860606D40F00200606594F85C1005
:101F500004208840304068B12068006800F002002A
:101F600040B194F85C1004208840A860606D40F097
:101F70000400606594F85C1010208840304078B30D
:101F80002068006800F0080050B394F85C1010203E
:101F90008840A8602068006800F4802080B1206834
:101FA000006800F4002028B9206CC8B12046216CDC
:101FB000884715E0A06C98B12046A16C88470FE0D7
:101FC0002068006800F4807028B92068006820F05C
:101FD000080021680860206C10B12046216C8847F9
:101FE00094F85C10202088403040002865D020689C
:101FF000006800F0100000285FD094F85C102020EA
:102000008840A86094F83500052828D12068006829
:1020100020F01600216808602068406920F08000E8
:1020200021684861206C08B9A06C28B1206800685C
:1020300020F008002168086094F85C103F20884078
:10204000A86000BF002084F8340000BF012084F89D
:102050003500206D10B12046216D8847F8BD2068FD
:10206000006800F4802080B12068006800F400203F
:1020700028B9606C10B12046616C88471DE0E06BA8
:10208000D8B12046E16B884717E02068006800F46B
:10209000807068B92068006820F01000216808602E
:1020A00000BF002084F8340000BF012084F8350010
:1020B000E06B10B12046E16B8847606D38B3606D0E
:1020C00000F00100F0B1052084F8350020680068B8
:1020D00020F001002168086000BF0098401C0090BB
:1020E000B84200D905E02068006800F0010000282F
:1020F000F3D100BF00BF002084F8340000BF0120EE
:1021000084F83500E06C10B12046E16C884700BFD0
:10211000A4E70000140000202DE9F041044600254A
:1021200000F006FA074614B90120BDE8F081606AA4
:1021300000B100BF00BF002084F8340000BF0220BF
:1021400084F835002068006820F0010021680860EC
:102150000AE000F0EDF9C01B052805D920206065D4
:10216000032084F83500E0E72068006800F00100F3
:102170000028EED12068056821480540D4E9010116
:102180000843E16808432169084361690843A1697C
:102190000843E1690843216A08430543606A04284B
:1021A00003D1D4E90B01084305432068056020688A
:1021B000456925F00705606A0543606A04280DD16A
:1021C000A06A0543E06A48B12046FEF77BFD28B1CE
:1021D00040206065012084F83500A6E7206845614D
:1021E0002046FEF755FD064694F85C103F208840D7
:1021F000B06000206065012084F83500002094E77D
:102200003F8010F02DE9F04704460D4616461F4664
:102210004FF00008D4F8589000BF94F8340001281B
:1022200002D10220BDE8F087012084F8340000BF0D
:1022300094F8350001282BD1022084F835000020C5
:1022400060653B46324629462046FEF790FD94F8ED
:102250005C103F208840C9F808002068006840F002
:102260001600216808602068406940F080002168FD
:102270004861206C28B12068006840F0080021689F
:1022800008602068006840F001002168086006E0EE
:1022900000BF002084F8340000BF4FF00208404621
:1022A000C0E70000402819D10D490968496A0D4A64
:1022B0001268891A06D00C490988491C09B20A4AD1
:1022C000118005E008490988491E09B2064A1180B3
:1022D00003490968496A034A116000BF00BF70479B
:1022E000AC020020B8000020B400002010B5044665
:1022F00004480068204020B1024804602046FFF7EF
:10230000D1FF10BD143C0140F8B502460B46002534
:10231000002400200021E6E0012606FA01F51E68EF
:1023200006EA0504AC4273D15E68022E02D05E68F4
:10233000122E13D1CF0802F1200656F827004E07BF
:10234000F70E0F26BE40B0434F07FF0E1E69BE407A
:102350003043CF0802F1200646F8270010684F00EE
:102360000326BE40B0431E7906F003064F00BE4070
:10237000304310605E68012E08D05E68022E05D0E2
:102380005E68112E02D05E68122E13D190684F0045
:102390000326BE40B0434F00DE68BE40304390602D
:1023A000506801268E40B0431E79C6F300168E4059
:1023B00030435060D0684F000326BE40B0434F000A
:1023C0009E68BE403043D0605E6806F08056B6F12D
:1023D000805FA8D100BF00260096454E366846F4BF
:1023E0008046434F3E603E46366806F4804600967F
:1023F00000BF00BF3F4E8F0856F827008E07370FEB
:102400000F26BE40B0433C4EB24202D100262EE021
:1024100068E03A4EB24201D1012628E0384EB2427D
:1024200001D1022623E0374EB24201D103261EE03D
:10243000354EB24201D1042619E0344EB24201D1E8
:10244000052614E0324EB24201D106260FE0314E8D
:10245000B24201D107260AE02F4EB24201D108262E
:1024600005E02E4EB24201D1092600E00A268F0770
:102470003F0FBE4030431F4E8F0846F82700284EBE
:102480003068A0435E6806F48036B6F5803F00D120
:102490002043234E3060361D3068A0435E6806F44A
:1024A0000036B6F5003F00D120431D4E361D30608A
:1024B000361D3068A0435E6806F48016B6F5801FAE
:1024C00000D12043164E08363060361D3068A043D8
:1024D0005E6806F40016B6F5001F00D12043104ECA
:1024E0000C363060491C1029FFF416AFF8BD00000F
:1024F0004438024008380140000002400004024015
:1025000000080240000C024000100240001402408B
:1025100000180240001C024000200240002402403B
:10252000003C01400AB1816101E00B048361704706
:102530000148006870470000080000200348006858
:1025400003490978084401490860704708000020E1
:102550001000002010B50D48006840F400700B49D1
:1025600008600846006840F480600860084600681B
:1025700040F480700860032000F0C8F8002000F0EC
:1025800007F800F04BF8002010BD0000003C0240AE
:1025900070B588B00446002500260022214636206A
:1025A00000F076F8362000F063F800BF00200190BC
:1025B0001648006840F0100014490860084600689A
:1025C00000F01000019000BF00BF02A903A800F0B6
:1025D000B7F900F0DDF945000D48B5FBF0F0461EF7
:1025E0000C480D49086040F2E7310B48C160466075
:1025F00000210161816000F0CDFC20B9064800F0A7
:1026000061FD08B070BD0120FBE7000040380240CA
:1026100040420F00001000408C06002008B500BFAB
:10262000002000901148006840F480400F49086085
:102630000846006800F48040009000BF00BF00BF63
:1026400000200090081F006840F08050091F0860BB
:102650000846006800F08050009000BF00BF0022D4
:102660000F21901E00F014F808BD0000443802400D
:1026700001460846002809DB00F01F0301229A40AA
:1026800043099B0003F1E023C3F8002100BF70471A
:102690002DE9F05F80460D461646002703F074FCD6
:1026A000074639462A46334601F00700C0F1070ABB
:1026B000BAF1040F02D94FF0040A01E0C0F1070A91
:1026C000D14600F1040ABAF1070F02D24FF0000A16
:1026D00001E0A0F1030AD4464FF0010A0AFA09FA10
:1026E000AAF1010A0AEA020A0AFA0CFA4FF0010BEF
:1026F0000BFA0CFBABF1010B0BEA030B4AEA0B04E0
:102700002146404603F048FCBDE8F09F00BF00F0C2
:102710000702064B19684FF6FF031940044B0B43A1
:1027200043EA0221014B196000BF70470CED00E045
:102730000000FA0538B5002400BF002000901D48B5
:10274000006840F080501B4908600846006800F0AF
:102750008050009000BF00BF012017490864FFF7B8
:10276000E7FE044607E0FFF7E3FE001BB0F57A7FC3
:1027700001D9032038BD1148406800F48030B0F51D
:10278000803FF0D101200C494864FFF7D1FE044698
:1027900007E0FFF7CDFE001BB0F57A7F01D90320DB
:1027A000E8E70648406800F40030B0F5003FF0D19B
:1027B0000020DFE74038024000000E420070004079
:1027C00070B504460D460CB9012070BD584800682C
:1027D00000F00F00A84209D255490D700846006864
:1027E00000F00F00A84201D00120EEE7207800F0B1
:1027F000020002281DD1207800F00400042805D131
:102800004C48006840F4E0504A490860207800F0E5
:102810000800082805D14748006840F46040454951
:1028200008604448006820F0F000A168084341496E
:102830000860207800F00100A8B36068012807D183
:102840003C4808380068C0F34040B8B90120BCE7F4
:102850006068022802D06068032807D1354808382C
:102860000068C0F3406048B90120AEE7314808383D
:102870000068C0F3400008B90120A6E72D480068B1
:1028800020F00300616808432A490860FFF750FE02
:10289000064609E0FFF74CFE801B41F28831884272
:1028A00002D9032091E707E02248006800F00C00FD
:1028B0006168B0EB810FEDD11D48006800F00F009A
:1028C000A84209D91A490D700846006800F00F00A7
:1028D000A84201D0012078E7207800F00400042805
:1028E00007D11448006820F4E050E168084311491A
:1028F0000860207800F00800082808D10D4800681A
:1029000020F46040216940EAC1000A49086000F0F3
:102910005FF808490968C1F30311074A515CC840D0
:10292000064908600020FFF733FE00204DE7000055
:10293000003C024008380240FC98000814000020C7
:102940000F2202600D4A126802F0030242600B4A35
:10295000126802F0F0028260084A126802F4E05243
:10296000C260064A126802F46042D2080261044A58
:10297000126802F00F020A60704700000838024037
:10298000003C02400148006870470000140000202D
:1029900000B5FFF7F7FF04490968C1F38221034A34
:1029A000515CC84000BD0000083802400C99000886
:1029B00000B5FFF7E7FF04490968C1F34231034A54
:1029C000515CC84000BD0000083802400C99000866
:1029D0002DE9F047002400250026A146254800687F
:1029E00000F00C0020B1042805D008283AD105E0F9
:1029F000DFF8849039E0DFF8849036E01D48001F4E
:102A0000006800F03F041B48001F006800F48000CD
:102A100078B11A481749091F0968C1F38811A0FB4A
:102A200001700146224600233846FDF73BFC05466F
:102A30000EE011480F49091F0968C1F38811A0FB76
:102A400001700146224600233846FDF72BFC05465F
:102A50000848001F0068C0F30140401C4600B5FB59
:102A6000F6F902E0DFF8109000BF00BF4846BDE86D
:102A7000F0870000083802400024F400001BB70073
:102A8000F8B504460CB90120F8BD207800F001002B
:102A9000002874D0F948006800F00C0004280DD01C
:102AA000F648006800F00C00082813D1F348001F16
:102AB000006800F48000B0F5800F0BD1EF480838B3
:102AC0000068C0F34040002859D06068002856D103
:102AD0000120D9E700BF6068B0F5803F08D1E74822
:102AE0000838006840F48030E449083908601EE086
:102AF0006068B0F5A02F0DD1E0480838006840F4B8
:102B00008020DE49083908600846006840F48030BB
:102B100008600CE0D9480838006820F48030D749B4
:102B2000083908600846006820F48020086000BF6B
:102B3000606890B1FFF7FCFC054606E0FFF7F8FC83
:102B4000401B642801D903209EE7CC480838006860
:102B5000C0F340400028F1D011E0FFF7E9FC054642
:102B600006E0FFF7E5FC401B642801D903208BE752
:102B7000C24808380068C0F340400028F1D12078EE
:102B800000F0020002285FD1BC48006800F00C0091
:102B900058B1BA48006800F00C0008281CD1B748AA
:102BA000001F006800F48000B0B9B448083800681D
:102BB000C0F3400020B1E068012801D0012063E7A4
:102BC000AE480838006820F0F800216940EAC100EA
:102BD000AA490839086037E0E06800B30120A84935
:102BE0000860FFF7A5FC054606E0FFF7A1FC401BC7
:102BF000022801D9032047E7A04808380068C0F33D
:102C000040000028F1D09D480838006820F0F80006
:102C1000216940EAC10099490839086014E00020A0
:102C200097490860FFF784FC054606E0FFF780FC43
:102C3000401B022801D9032026E790480838006885
:102C4000C0F340000028F1D1207800F008000828E7
:102C50002CD16069A8B101208A490860FFF768FC9F
:102C6000054606E0FFF764FC401B022801D903205B
:102C70000AE782486C300068C0F340000028F1D0B9
:102C800014E000207F490860FFF752FC054606E08B
:102C9000FFF74EFC401B022801D90320F4E67748D9
:102CA0006C300068C0F340000028F1D1207800F0BB
:102CB0000400042870D1002670483830006800F005
:102CC000805090B900BF002000906C4838300068F8
:102CD00040F080506949383108600846006800F0CB
:102CE0008050009000BF00BF01266748006800F4D4
:102CF0008070B0B96448006840F480706249086030
:102D0000FFF716FC054606E0FFF712FC401B022801
:102D100001D90320B8E65C48006800F48070002800
:102D2000F2D000BFA068012808D15448683000687C
:102D300040F001005149683108601DE0A068052895
:102D40000DD14E486830006840F004004B496831AE
:102D500008600846006840F0010008600CE0474841
:102D60006830006820F00100444968310860084676
:102D7000006820F00400086000BFA068A8B1FFF759
:102D8000D7FB054609E0FFF7D3FB401B41F2883132
:102D9000884202D9032077E626E038486830006888
:102DA000C0F340000028EED013E0FFF7C1FB05465A
:102DB00008E0FFF7BDFB401B41F28831884201D992
:102DC000032061E62D4868300068C0F34000002809
:102DD000EFD1012E07D129483830006820F080500B
:102DE00026493831086000BFA069B8B3234800689D
:102DF00000F00C0008285ED0A069022846D100200F
:102E00001F490866FFF794FB054606E0FFF790FBB5
:102E1000401B022801D9032036E61848083800680C
:102E2000C0F340600028F1D1D4E907010843616A8A
:102E300040EA81110122A06AC2EB500041EA004140
:102E40002C20005D41EA00600C49091F0860012048
:102E50000B490866FFF76CFB054607E02DE0FFF71E
:102E600067FB401B022801D903200DE60348083800
:102E70000068C0F340600028F1D01EE0083802402E
:102E800000004742800E47420070004000200C497D
:102E90000866FFF74DFB054606E0FFF749FB401BC0
:102EA000022801D90320EFE506480068C0F340601E
:102EB0000028F2D101E00120E6E50020E4E5000071
:102EC00000004742003802407047704710B5034683
:102ED000002200BF93F83C00012801D1022010BD60
:102EE000012083F83C0000BF22F0FF00CC6840EADC
:102EF000040222F440708C6840EA040222F48060EC
:102F00004C6840EA040222F400600C6840EA0402C3
:102F100022F480500C6940EA040222F400504C690B
:102F200040EA040222F48040CC6940EA04021868B6
:102F3000426400BF002083F83C0000BF00BFCEE722
:102F400010B5024600BF92F83C00012801D10220D2
:102F500010BD012082F83C0000BF022082F83D0035
:102F6000106843681068846823F07003086803439E
:102F700024F080044868044310684360106884604B
:102F8000012082F83D0000BF002082F83C0000BF15
:102F900000BFDDE710B504460CB9012010BD94F860
:102FA0003D0028B9002084F83C00204600F00CF8D1
:102FB000022084F83D00211D206802F005FA01205E
:102FC00084F83D000020E9E710B586B004461421DE
:102FD00001A8FDF7B1F92068B0F1804F37D100BFEB
:102FE000002000903348006840F00100314908603B
:102FF0000846006800F00100009000BF00BF00BF5D
:10300000002000902B481038006840F0010029494A
:10301000103908600846006800F00100009000BF09
:1030200000BF0C2001900220029000200390049029
:103030000120059001A92048FFF766F9002205212B
:103040001C20FFF725FB1C20FFF712FB30E01B497B
:103050002068884218D100BF002000901548006801
:1030600040F02000134908600846006800F0200086
:10307000009000BF00BF002205213720FFF708FBAA
:103080003720FFF7F5FA13E00D49206888420FD189
:1030900000BF002000900748006840F0400005494C
:1030A00008600846006800F04000009000BF00BFC4
:1030B00006B010BD4038024000000240001400403D
:1030C0000018004001460868C06840F001000B6825
:1030D000D8600868806800F00702062A05D00868F2
:1030E000006840F001000B681860002070472DE96F
:1030F000F04104460D4600BF94F83C00012802D17F
:103100000220BDE8F081012084F83C0000BF0220CD
:1031100084F83D002068866826F0770626F47F460E
:10312000206886602868502833D00CDC202850D0D6
:1031300004DC00284BD0102851D149E0302849D078
:1031400040284CD139E060282DD0702807D0B0F548
:10315000805F03D0B0F5005F41D10DE040E0D5E9DC
:1031600002136A68206802F0ACF92068866846F0AD
:1031700077062068866033E0D5E902136A68206824
:1031800002F09FF92068806840F4804021688860E0
:1031900026E0EA686968206802F084FA5021206815
:1031A00002F09AF91CE0EA686968206802F0D6FA31
:1031B0006021206802F090F912E0EA6869682068EE
:1031C00002F070FA4021206802F086F908E000BFA2
:1031D00000BF00BF2968206802F07EF900E000BF50
:1031E00000BF012084F83D0000BF002084F83C00AF
:1031F00000BF00BF85E72DE9F04104460D4614B934
:103200000120BDE8F08194F83D0028B9002084F841
:103210003C00204600F046F8022084F83D0020687B
:10322000806844F20701884321688860211D206876
:1032300002F0CAF82068D0F8088020688669206803
:10324000076A286840EA080840F203308643A96903
:10325000A86840EA0120064340F60C4086434FF23E
:10326000F0008643E969E86840EA012006432869DE
:103270000001296A40EA0130064327F0220727F0BF
:1032800088076969686840EA011007432068C0F848
:1032900008802068866120680762012084F83D006C
:1032A0000020AEE710B586B00446142101A8FDF752
:1032B00043F81B49206888422FD100BF00200090AE
:1032C0001848006840F00200164908600846006887
:1032D00000F00200009000BF00BF00BF002000907F
:1032E00010481038006840F004000E49103908609A
:1032F0000846006800F00400009000BF00BFC02036
:1033000001900220029001200390002004900220EE
:10331000059001A90448FEF7F7FF06B010BD0000B4
:1033200000040040403802400008024010B5044646
:10333000207F042879D18E480078002844D10821C4
:103340008C4800F0E5FB8C49086000BF89480068A4
:10335000006A4FF2FF5108408649096808628548B3
:103360000068006A40F4007082490968086200BF82
:103370000821804800F0A5F901207D4908707F48A8
:10338000006818B900207E49086018E07A48006893
:103390007A490968884207D97748006877490968F7
:1033A000401A774908600AE0734800684FF6FF71D9
:1033B000084472490968401A401C714908606E4807
:1033C00000686E490860D1E0694800780128FAD1A8
:1033D0000821684800F09CFB6A49086000BF654806
:1033E0000068006A4FF2FF510840624909680862AC
:1033F00060480068006A5F490968086200BF0821E8
:103400005C4800F05EF95F4800685B4909688842E3
:103410000CD25C4800684FF6FF71084456490968B1
:10342000401A401C5849086007E011E05548006800
:1034300051490968401A544908605148006818B158
:1034400051480068514908600020494908708DE0E2
:10345000207F0828B7D14E480078A0BB0C214548F2
:1034600000F056FB4B49086000BF42480068006A04
:1034700045F6FF7108403F49096808623D48006809
:10348000006A40F400503B490968086200BF0C2103
:10349000384800F016F901203D4908703E480068A0
:1034A00018B900203D49086019E03A4800683A49D7
:1034B0000968884208D93748006837490968401ABE
:1034C000364908600BE00FE0324800684FF6FF71A4
:1034D000084431490968401A401C304908602D48A9
:1034E00000682D49086041E02948007801283DD155
:1034F0000C21204800F00CFB2949086000BF1D4842
:103500000068006A45F6FF7108401A4909680862B8
:1035100018480068006A17490968086200BF0C2152
:10352000144800F0CEF81E4800681A49096888421D
:103530000BD21B4800684FF6FF7108441549096813
:10354000401A401C1749086006E0154800681149F8
:103550000968401A134908601048006818B11148FA
:1035600000681149086000200949087010BD00007A
:10357000E00000206C020020F0000020EC000020A1
:10358000D8000020F4000020D0000020E40000203B
:10359000E1000020FC000020F8000020DC000020FA
:1035A00000010020D4000020E80000202DE9F041B7
:1035B00004460D46164600BF94F83C00012802D18F
:1035C0000220BDE8F081012084F83C0000BF022009
:1035D00084F83D0096B9EB68D5E90012206802F046
:1035E00075F82068806920F00C00216888612068E7
:1035F0008069A9680843216888613DE0042E13D1E1
:10360000EB68D5E90012206802F0BCF820688069F8
:1036100020F440602168886120688069A96840EAD8
:1036200001202168886127E0082E12D1EB68D5E9D6
:103630000012206802F0C3F82068C06920F00C0076
:103640002168C8612068C069A96808432168C86109
:1036500012E0EB68D5E90012206802F0CCF820688F
:10366000C06920F440602168C8612068C069A96809
:1036700040EA01202168C861012084F83D0000BFB4
:10368000002084F83C0000BF00BF9AE710B5044654
:103690000CB9012010BD94F83D0028B9002084F831
:1036A0003C00204600F00CF8022084F83D00211D6B
:1036B000206801F089FE012084F83D000020E9E740
:1036C000704770B504460D4635B1042D0BD0082D5A
:1036D00010D00C2D1CD114E02068C06840F002000E
:1036E0002168C86015E02068C06840F004002168C7
:1036F000C8600EE02068C06840F008002168C8601B
:1037000007E02068C06840F010002168C86000E051
:1037100000BF00BF01222946206801F0C1FE2068D9
:10372000806800F00706062E05D02068006840F08B
:10373000010021680860002070BD10B504462068B3
:103740000069C0F34000D8B12068C068C0F34000F1
:10375000B0B16FF002002168086101202077206875
:10376000806900F0030018B12046FFF7DFFD05E097
:10377000204600F005F9204600F0BCF90020207733
:1037800020680069C0F38000D8B12068C068C0F329
:103790008000B0B16FF0040021680861022020773A
:1037A0002068806900F4407018B12046FFF7BEFD24
:1037B00005E0204600F0E4F8204600F09BF90020E8
:1037C000207720680069C0F3C000D8B12068C068C5
:1037D000C0F3C000B0B16FF0080021680861042098
:1037E00020772068C06900F0030018B12046FFF779
:1037F0009DFD05E0204600F0C3F8204600F07AF970
:103800000020207720680069C0F30010D8B120683C
:10381000C068C0F30010B0B16FF0100021680861FB
:10382000082020772068C06900F4407018B1204655
:10383000FFF77CFD05E0204600F0A2F8204600F0EE
:1038400059F9002020772068006900F0010058B184
:103850002068C06800F0010030B16FF001002168FD
:103860000861204600F048F920680069C0F3C010E4
:1038700058B12068C068C0F3C01030B16FF080004C
:10388000216808612046FFF71FFB20680069C0F32C
:10389000801058B12068C068C0F3801030B16FF05C
:1038A000400021680861204600F04BF9206800695B
:1038B000C0F3401058B12068C068C0F3401030B168
:1038C0006FF02000216808612046FFF7FEFA10BD66
:1038D00010B586B00446142101A8FCF72DFD23493C
:1038E000206888421DD100BF002000902048006859
:1038F00040F001001E4908600846006800F0010021
:10390000009000BF00BF88150190022002900020A7
:10391000039004900120059001A91648FEF7F4FCDD
:1039200021E01549206888421DD100BF0020009089
:103930000F48006840F002000D4908600846006822
:1039400000F00200009000BF00BF4FF480400190E3
:10395000022002900020039004900920059001A904
:103960000648FEF7D1FC06B010BD00000000014083
:1039700030380240000002400018004000040240BD
:10398000704770B504460D46164600BF94F83C00DB
:10399000012801D1022070BD012084F83C0000BF45
:1039A000022084F83D0036B1042E1BD0082E31D001
:1039B0000C2E5ED145E02946206801F097FD206875
:1039C000806940F00800216888612068806920F0E3
:1039D000040021688861206880692969084321689A
:1039E000886147E02946206801F0B8FD20688069B9
:1039F00040F40060216888612068806920F480605C
:103A00002168886120688069296940EA012021686D
:103A100088612FE02946206801F0DEFD2068C0693A
:103A200040F008002168C8612068C06920F00400E7
:103A30002168C8612068C069296908432168C86194
:103A400018E02946206801F003FE2068C06940F4B0
:103A500000602168C8612068C06920F48060216826
:103A6000C8612068C069296940EA01202168C861ED
:103A700000E000BF00BF012084F83D0000BF00202F
:103A800084F83C0000BF00BF85E710B504460CB9C0
:103A9000012010BD94F83D0028B9002084F83C00B6
:103AA000204600F00DF8022084F83D00211D20681A
:103AB00001F08AFC012084F83D000020E9E70000C5
:103AC00008B50A4A016891420FD100BF0021009158
:103AD0000749096841F00101054A1160114609686A
:103AE00001F00101009100BF00BF08BD00000140CE
:103AF000443802407047000010B50446034920686E
:103B0000884201D1FEF71AFD10BD000000100040F0
:103B10000246002031B1042907D0082908D00C2919
:103B20000CD108E01368586B09E01368986B06E045
:103B30001368D86B03E01368186C00E000BF00BF87
:103B40007047704770B50446002520684069C0F38F
:103B5000C01594F8390021280ED16DB12068406954
:103B600020F0800021684861206B10B1206BFEF7C7
:103B700049F9204601F0EAFE20684069C0F380154B
:103B800094F83A0022280ED16DB12068406920F0E7
:103B9000400021684861606B10B1606BFEF732F93C
:103BA000204601F0B3FE002070BD70472DE9F047BC
:103BB0000446206805682068C668206847694FF099
:103BC0000008C14605F00F08B8F1000F0AD105F052
:103BD000200038B106F0200020B1204601F0C0FEE0
:103BE000BDE8F087B8F1000F6ED007F0010018B9FA
:103BF00006F49070002867D005F0010030B106F49B
:103C0000807018B1E06B40F00100E06305F0040043
:103C100030B107F0010018B1E06B40F00200E06342
:103C200005F0020030B107F0010018B1E06B40F080
:103C30000400E06305F0080030B107F0010018B19E
:103C4000E06B40F00800E063E06B70B305F020002B
:103C500028B106F0200010B1204601F081FE206856
:103C60004069C0F38019E06B00F0080010B9B9F1A9
:103C7000000F23D0204601F049FE2068406900F083
:103C80004000402816D12068406920F0400021689B
:103C90004861606B50B11748616B0865606BFEF757
:103CA00006F910B1606B016D88470CE02046FFF704
:103CB0007CFF08E02046FFF778FF04E02046FFF78E
:103CC00074FF0020E0638BE705F0800030B106F060
:103CD000800018B1204602F04BF881E705F0400063
:103CE00030B106F0400018B1204601F01FFE77E722
:103CF00000BF75E75558000810B504460CB90120FF
:103D000010BDA06900B100E000BF94F8390028B9E7
:103D1000002084F83800204600F028F8242084F899
:103D200039002068C06820F400502168C86020462F
:103D300001F06AFE2068006920F490402168086163
:103D40002068406920F02A00216848612068C06826
:103D500040F400502168C8600020E063202084F80F
:103D6000390084F83A000020CAE7000010B586B098
:103D70000446142101A8FCF7DFFAE44920688842D0
:103D800056D100BF00200090E148006840F080401C
:103D9000DF4908600846006800F08040009000BFDE
:103DA00000BF00BF00200090D9481038006840F0E4
:103DB0001000D749103908600846006800F010006C
:103DC000009000BF00BF4FF4C0700190022002902D
:103DD00001200390032004900820059001A9CD48FC
:103DE000FEF792FACC48CD4908604FF02060486059
:103DF0000021CA488160C1604FF4806101610021E7
:103E000041618161C16101624162FEF785F908B1DA
:103E1000FDF73CF800BFC1486063846300BF002227
:103E200006215220FEF734FC5220FEF721FC6BE104
:103E3000BB492068884255D100BF00200090B4489B
:103E4000006840F00040B24908600846006800F091
:103E50000040009000BF00BF00BF00200090AC48B1
:103E60001038006840F01000A94910390860084671
:103E7000006800F01000009000BF00BF0320019018
:103E80000220029001200390032004900820059056
:103E900001A9A048FEF738FA9F484830A1490860B8
:103EA0000005486000219F488160C1604FF4806137
:103EB0000161002141618161C16101624162FEF7DE
:103EC0002BF908B1FCF7E2FF00BF964860638463FA
:103ED00000BF002205215320FEF7DAFB5320FEF736
:103EE000C7FB11E190492068884257D100BF0020EC
:103EF00000908748001D006840F010008449091DAB
:103F000008600846006800F01000009000BF00BF85
:103F100000BF002000907E481038006840F002008A
:103F20007B49103908600846006800F002000090E4
:103F300000BF00BFC020019002200290012003902A
:103F4000032004900720059001A97848FEF7DCF9CA
:103F50007748784908604FF0006048600021754854
:103F60008160C1604FF48061016100214161816124
:103F7000C16101624162FEF7CFF808B1FCF786FF2C
:103F800000BF6C486063846300BF002205212520C8
:103F9000FEF77EFB2520FEF76BFBB5E06649206847
:103FA000884256D100BF002000905948006840F474
:103FB0000030574908600846006800F4003000905F
:103FC00000BF00BF00BF00200090514810380068BB
:103FD00040F008004E49103908600846006800F0BB
:103FE0000800009000BF00BF6020019002200290F6
:103FF00001200390032004900720059001A94F4859
:10400000FEF782F9444830304D4908604FF00060B7
:10401000486000214A488160C1604FF480610161BD
:10402000002141618161C16101624162FEF774F862
:1040300008B1FCF72BFF00BF41486063846300BFF9
:10404000002206212620FEF723FB2620FEF710FB88
:104050005AE03C492068884256D100BF00200090B9
:104060002B48006840F48020294908600846006811
:1040700000F48020009000BF00BF00BF002000902F
:1040800023481038006840F00800214910390860C2
:104090000846006800F00800009000BF00BF4FF421
:1040A00040700190022002900120039003200490B0
:1040B0000720059001A92148FEF726F91648303857
:1040C000214908604FF00060486000211E4881606F
:1040D000C1604FF480610161002141618161C16172
:1040E00001624162FEF718F808B1FCF7CFFE00BF8D
:1040F00015486063846300BF002207212720FEF774
:10410000C7FA2720FEF7B4FA06B010BD00780040C9
:10411000403802400010024058600240AC040020C9
:10412000007C00400C05002000100140000402400B
:10413000406402406C05002000440040000C024036
:10414000CC050020004800402C06002077B581B047
:104150000446154694F83A00202850D1029800B140
:1041600015B9012004B070BD00BF94F838000128D3
:1041700001D10220F6E7012084F8380000BF029840
:10418000A062A5850020E063222084F83A001D4843
:10419000616BC8631C48616B08641C48616BC86430
:1041A0000020616B086502AE32682368191D2B463A
:1041B000606BFEF727F800BF0020009020680068C1
:1041C000009020684068009000BF00BF00BF002042
:1041D00084F8380000BF2068C06840F4807021680F
:1041E000C8602068406940F001002168486120688B
:1041F000406940F04000216848610020B2E7022099
:10420000B0E70000B9580008FF58000869580008D6
:10421000704770472DE9F84304460D4616461F4681
:104220004FF0000994F8390020285CD105B116B987
:104230000120BDE8F88300BF94F83800012801D1BF
:104240000220F6E7012084F8380000BF0020E06378
:10425000212084F83900FEF76BF98146A684E684B4
:104260002BE0E08C401EE084A068B0F5805F16D1A2
:104270004B46002280212046009701F0ADFD08B199
:104280000320D6E7A846B8F80000C0F3080021686C
:104290004860206908B9AD1C0FE06D1C0DE04B466D
:1042A000002280212046009701F096FD08B10320EE
:1042B000BFE715F8010B21684860E08C0028D0D1D9
:1042C0004B46002240212046009701F085FD08B1B1
:1042D0000320AEE7202084F8390000BF002084F8D6
:1042E000380000BFA5E70220A3E7704700BFFEE744
:1042F00010B50446002020700CB9012010BD0F211C
:10430000A01CFCF719F80020607060749FED0B0A88
:1043100084ED060AA08201220F21094801F0ACFDBC
:1043200008B10120EAE704F11C0000F0FDFD20784F
:1043300040F0010020700020E0E7000000000000D5
:10434000AC0300202DE9F0472DED0C8B0446002630
:104350000027B046B146A11C994801F0D9FD0028BC
:104360007CD1022521E1A01C405D702806D1A01C53
:10437000691C405C00F00F006070AD1CA01C405D2B
:10438000642847D1EEB207E0701B052802DD3B210F
:10439000A01C8155701CC6B2A01C805D3B28F3D1C7
:1043A000701B401EC6B20020A08231E06D1C701E42
:1043B000FCF755F941EC1D0BB0EE4D1AF0EE6D1AFD
:1043C0009FED800B01F0FCFDB0EE40BAF0EE60BA5C
:1043D000A11C495D01F00F00FCF741F941EC1C0BF9
:1043E00053EC1B2BFCF75AF841EC190BB4F91400F1
:1043F000FCF735F941EC1A0B53EC192BFBF7A7FF2F
:1044000041EC180BFCF749F900B2A082701EC6B24D
:10441000002ECBDCA01C405D61287DD1EEB207E010
:10442000701B052802DD3B21A01C8155701CC6B203
:10443000A01C805D3B28F3D1A01C691C405C2D288A
:1044400002D16D1C4FF00109701B401EC6B29FEDDA
:104450005F0A84ED060A0027B04640E0A9E06D1C23
:10446000A01C405D2E2803D1A8EB0600C7B26D1C2E
:10447000701EFCF7F4F841EC1D0BB0EE4D1AF0EE97
:104480006D1A9FED500B01F09BFDB0EE40BAF0EEBF
:1044900060BAA11C495D01F00F00FCF7E0F841ECA7
:1044A0001C0B53EC1B2BFBF7F9FF41EC190B94EDA4
:1044B000060A10EE101A0846FCF70EF941EC1A0B2A
:1044C00053EC192BFBF743FF41EC180BFCF717F9E2
:1044D000A06117B1022E00D10126701EC6B2002EB7
:1044E000BDDC012F25D1781CFCF7B9F841EC1B0B82
:1044F000B0EE4B1AF0EE6B1A9FED320B01F060FD3F
:10450000B0EE409AF0EE609A94ED060A10EE101AA2
:104510000846FCF7E1F800E037E041EC1A0B53ECF9
:10452000192BFCF72DF841EC180BFCF7E8F8A0610B
:1045300022E03846FCF7A4F841EC1B0BB0EE4B1A16
:10454000F0EE6B1A9FED1F0B01F03AFDB0EE409AB2
:10455000F0EE609A94ED060A10EE101A0846FCF789
:10456000BBF841EC1A0B53EC192BFCF709F841ECA2
:10457000180BFCF7C4F8A061B9F1010F05D194ED57
:10458000060AB1EE400A84ED060AA01C405D7328BD
:1045900002D1012060746D1CA01C405D6C2803D109
:1045A0000120A0746D1C00E06D1C0F2DFFF6DBAE2A
:1045B00002E000BF00BF00BFBDEC0C8BBDE8F08780
:1045C000AC030020000000000000244000000000B8
:1045D0001CB50446A07C01281FD10020A0740F4800
:1045E000B0F900000121CDE900100D48B0F900300C
:1045F000002202210B48FCF7D0FB0B48B0F9000069
:1046000003F012F9094890ED000A0948B0F90000DA
:1046100000F0A0FC642003F007F91CBDA2010020FB
:104620001E0100202C040020A001002028010020F1
:104630002401002010B50E480E490860052048608E
:1046400000210C4881604FF08071C1604FF4C0219F
:10465000016100214161017641768176C176017761
:104660004177FDF731FA08B1FCF710FC10BD0000EE
:1046700000640040DC01002010B50E480E490860BF
:104680000520486000210C4881604FF08071C160B6
:104690004FF4C021016100214161017641768176AC
:1046A000C17601774177FDF70FFA08B1FCF7EEFB11
:1046B00010BD0000006800400402002008B500BFE3
:1046C000002000902248006840F400102049086053
:1046D0000846006800F40010009000BF00BF00BF53
:1046E000002000900846006840F4800008600846FA
:1046F000006800F48000009000BF00BF0022052188
:104700000C20FDF7C5FF0C20FDF7B2FF00220521AC
:104710000E20FDF7BDFF0E20FDF7AAFF00220521A8
:104720001020FDF7B5FF1020FDF7A2FF00220521A4
:104730001120FDF7ADFF1120FDF79AFF00220521A2
:104740003A20FDF7A5FF3A20FDF792FF08BD0000D3
:10475000303802407047000000B587B0142102A82D
:10476000FBF7EAFD00BF002001905948006840F0C7
:104770001000574908600846006800F010000190DA
:1047800000BF00BF00BF002001900846006840F055
:10479000080008600846006800F00800019000BFAB
:1047A00000BF00BF002001900846006840F00100F3
:1047B00008600846006800F00100019000BF00BFDB
:1047C00000BF002001900846006840F00200086029
:1047D0000846006800F00200019000BF00BF00BF63
:1047E000002001900846006840F0800008600846FC
:1047F000006800F08000019000BF00BF00BF0020F3
:1048000001900846006840F004000860084600680F
:1048100000F00400019000BF00BF002241F202013D
:104820002C48FDF77FFE01224FF47E412A48FDF718
:1048300079FE012230212948FDF774FE8020029084
:1048400000200390049002A92548FDF75DFD40205B
:104850000290244803900120049002A91E48FDF70D
:1048600053FD4FF46060029000200390049002A971
:104870001848FDF749FD41F2020002900120039023
:1048800004900020059002A91248FDF73DFD4FF469
:104890007E4002900120039000200490059002A920
:1048A0000D48FDF731FD30200290012003900020DB
:1048B0000490059002A90948FDF726FD0022052174
:1048C0001720FDF7E5FE1720FDF7D2FE07B000BD6B
:1048D0003038024000000240001002400004024054
:1048E000000C02400000111000B58BB000200790B2
:1048F000089009900A901C216846FBF71DFD1B4893
:104900001B4908605920486000211948816044F61D
:104910001F61C160002101618161FEF73BFB08B1AD
:10492000FCF7B4FA4FF48050079007A91048FEF73F
:10493000DEFB08B1FCF7AAFA0D48FFF7A6F808B1AC
:10494000FCF7A4FA602000900020019002900490EF
:10495000002269460648FFF714F808B1FCF796FAFA
:104960000348FEF7B5FF0BB000BD00000018004083
:104970002C03002000B591B000200F9010901C2156
:1049800008A8FBF7D9FC20216846FBF7D5FC234893
:1049900023490860B320486000212148816044F623
:1049A0001F61C1600021016141618161FFF76DF804
:1049B00008B1FCF76BFA00200F9010900FA918486F
:1049C000FEF7BEFA08B1FCF761FA602008900020FB
:1049D00009900A900B900C900D900E90002208A95F
:1049E0000F48FEF7CEFF08B1FCF750FA0020009008
:1049F00001900290039004904FF400500590002025
:104A0000079069460648FEF761FA08B1FCF73EFADE
:104A10000348FEF75DFF11B000BD0000000001403B
:104A20002C02002000B58BB0002007900890099060
:104A30000A900590069001900290039004904FF028
:104A40008040234908605920486000212048816047
:104A50004FF6FE71C160002101618161FEF79AFA93
:104A600008B1FCF713FA4FF48050079007A91848D3
:104A7000FEF73DFB08B1FCF709FA1548FEF706FE04
:104A800008B1FCF703FA00200590069005A910482C
:104A9000FEF756FA08B1FCF7F9F900200190012061
:104AA00002900020039004200490082201A90848E5
:104AB000FEF77CFD08B1FCF7E9F90C2201A90448D6
:104AC000FEF774FD08B1FCF7E1F90BB000BD000082
:104AD0006C02002000B58BB0242102A8FBF72CFC4F
:104AE0000020009001901848184908600020486094
:104AF00000211648816040F2CF71C1600021016140
:104B00008161032002900020039001200490002086
:104B100005900690079001200890002009900A90C7
:104B200002A90A48FEF767FB08B1FCF7AFF90020BD
:104B30000090019069460548FEF702FA08B1FCF7BB
:104B4000A5F90BB000BD000000040040AC0200203D
:104B50001CB50020009001900E480F4908605920B4
:104B6000486000210C48816044F61F61C16000214B
:104B70008161FEF70FFA08B1FCF788F90020009078
:104B8000019069460448FEF7DBF908B1FCF77EF9AD
:104B90001CBD000000140040EC02002010B50B48C2
:104BA0000B4908604FF4E1304860002108488160FB
:104BB000C16001610C21416100218161C161FFF788
:104BC0009BF808B1FCF762F910BD000000780040C6
:104BD0006C03002010B50B480B4908604FF4E1301E
:104BE0004860002108488160C16001610C21416179
:104BF00000218161C161FFF77FF808B1FCF746F938
:104C000010BD0000007C0040AC03002010B50B4834
:104C10000B4908600B484860002109488160C16069
:104C20004FF4806101610C21416100218161C1610A
:104C3000FFF762F808B1FCF729F910BD0010014038
:104C4000EC030020A086010010B50A480A4908605C
:104C50000A484860002108488160C16001610C2158
:104C6000416100218161C161FFF746F808B1FCF79D
:104C70000DF910BD004400402C04002040420F00FC
:104C800010B50B480B4908604FF4E1304860002133
:104C900008488160C16001610C214161002181618E
:104CA000C161FFF729F808B1FCF7F0F810BD00006A
:104CB000004800406C04002000BFFEE770477CB550
:104CC000054600242846FCF769F904462868006870
:104CD000C0F3001070B300BF002000902868006887
:104CE000009028684068009000BF00BF2846FEF78B
:104CF00029FF686B006846686078801B6081608966
:104D0000ADF804009DF80400616808709DF8050086
:104D10006168487000231A466168E06804F0CAF9C7
:104D200061786068FBF708FB62786068811C284640
:104D3000FFF70CFA00207CBD00EE100AF8EEC00A66
:104D4000B1EE041A80EE810A7047000010B50348E6
:104D500000F04CF80248FFF7F5FA10BD58B80020F3
:104D600070B8002010B507490748FBF733FF074824
:104D700000F012F80648FFF7BBFA0648006803F097
:104D8000B3FE10BDEC03002024B8002058B800206A
:104D900070B80020C001002010B50446002020603B
:104DA0000CB9012010BD0020E080A080207220609E
:104DB000012210210A4801F05FF808B10120F1E753
:104DC00004F10C0000F0B0F8064800F0ADF8064819
:104DD00000F0AAF8206840F0010020600020E1E720
:104DE0006C040020BC000020C400002010B5044664
:104DF0003A493B4801F08CF8002861D13748807867
:104E000024284ED1012060723448C07800F00F0091
:104E1000642110FB01F03149097901F00F0101EB28
:104E2000810100EB41002D49497901F00F0108444F
:104E3000A038A0802948807900F00F00642110FB81
:104E400001F02649C97901F00F0101EB810100EB66
:104E500041002249097A01F00F010844E0801F480F
:104E6000407A00F00F004FF47A7110FB01F01B49FB
:104E7000897A01F00F0101EBC10202EB011100EB95
:104E800081001649C97A01F00F0101EB810100EBA5
:104E900041001249097B01F00F01084400B2A082D1
:104EA00005E00E488078232801D100206072206838
:104EB00040F00400206004F10C00FBF7E9FF0CE077
:104EC00000BFE06848B90020E080A0802060A08298
:104ED0006072206820F00400206010BD24B700201C
:104EE0006C0400202DE9F04107460D460024002601
:104EF00000BF10E004F10900012101FA00F0304385
:104F000086B2002231463846FDF70CFB284602F0F7
:104F10008BFC601CC4B2072CECDB01223146384606
:104F2000FDF700FBBDE8F081024600210BE00848D8
:104F300050F8210028B9064840F82120516000208F
:104F40007047481CC1B21E29F1DB0120F8E70000C0
:104F500034B7002010B52DED108B86B00446B0EEAE
:104F6000408A6A48048040F6C410844216DC6848CF
:104F700090ED000A674890ED001A6448B0F900000F
:104F800000EE900AF8EEE00A01EE200ABDEEC00A3B
:104F900010EE100A00B2604908808FE040F6C4109D
:104FA00084421ADD40F68C20844216DA5B4890ED8C
:104FB000000A5B4890ED001A5448B0F9000000EE7A
:104FC000900AF8EEE00A01EE200ABDEEC00A10EEEB
:104FD000100A00B25049088070E052480068FBF7A0
:104FE0007BFB41EC190B5048D0ED000A00EE104A53
:104FF000B8EEC00A20EE800A10EE101A0846FBF741
:105000006BFBCDE902012046FBF729FB41EC1F0BAE
:105010009FED461BB0EE4F0AF0EE6F0A00F0D0FF96
:10502000B0EE40DAF0EE60DA42480068FBF754FB7D
:1050300041EC1E0B53EC1D2BFBF730FA41EC1B0B24
:105040002046FBF70CFB41EC1F0B9FED3B1BB0EE2A
:105050004F0AF0EE6F0A00F0B3FFB0EE40DAF0EE68
:1050600060DA37480068FBF737FB41EC1E0B53EC66
:105070001D2BFBF713FA41EC1C0B53EC1B2BFBF71E
:1050800066F9CDE900019DED020B53EC102B9DED6F
:10509000000B51EC100BFBF75AF941EC1A0B53ECD7
:1050A000192BFBF754F9CDE904019DED040B51ECEC
:1050B000100BFBF7F2FA00B217490880214880ED87
:1050C000008A9FED210A78EE000A9FED201A80EEFB
:1050D000810ADFED1F0A20EE200ABDEEC00A10EEA5
:1050E000100A00B21B4908800B48B0F900000121EA
:1050F000CDE900101748B0F900300022022116480F
:10510000FBF74BFE06B0BDEC108B10BD2401002058
:1051100084010020800100201C0100208C0100205F
:10512000880100209C010020980100200000000060
:105130000000004094010020000000000000084032
:105140009001002028010020CD0C35430000B4431D
:10515000000080451E0100202C04002000BF6420B8
:1051600002F062FBFBE7FBF715FF04462046FCF765
:10517000ADFA00BF2046FBF757FF052002F054FBB5
:10518000F8E7FFF7EFFD00BFFFF7E0FD022002F0B8
:105190004BFBF9E78AB000BF1422174905A8FBF7BB
:1051A000B2F8002105A802F050FB1449086014224F
:1051B000114914316846FBF7A6F80021684602F051
:1051C00044FB0F4908600A2002F02EFB4FF4FA71ED
:1051D0000C48FFF787FE01200B490870074800685C
:1051E00003F0EEFB0648006803F0EAFB074800689E
:1051F00003F01EFBD0E700002C990008C00100203E
:10520000C401002000100240C8010020BC010020A1
:1052100010B500F001F810BD00B585B014220749A3
:105220006846FBF770F80021684602F00EFB04495F
:105230000860FBF757FE05B000BD00001899000894
:10524000BC01002010B500BF502080F31188BFF3CF
:105250004F8FBFF36F8F00BF04F0E8F818B14FF025
:1052600080500449086000BF002080F3118800BF0F
:1052700010BD000004ED00E000B593B0302107A898
:10528000FBF75AF8142102A8FBF756F800BF0020DC
:1052900001902648006840F0805024490860084684
:1052A000006800F08050019000BF00BF00BF0020E8
:1052B00001901F48006840F440401D4908600846BE
:1052C000006800F44040019000BF00BF012007903B
:1052D0000004089002200D9041050E9106210F91C7
:1052E000B4211091022111910421129107A8FDF718
:1052F000C7FB08B1FBF7CAFDFDF71CFA08B1FBF7C5
:10530000C5FD0F20029002200390002004904FF46E
:10531000A05005904FF480500690052102A8FDF79B
:105320004FFA08B1FBF7B2FD13B000BD40380240A0
:10533000007000401448006840F470001249086092
:105340001248006840F001001049086000200F4931
:10535000083108600D4800680D4908400B49086095
:105360000C48091D0860081F006820F48020091FF0
:105370000860002005490C3108604FF000600249C8
:10538000803908607047000088ED00E00038024076
:10539000FFFFF6FE1030002410B50248FEF7CDF9ED
:1053A00010BD00006C02002010B50248FEF7C5F9E0
:1053B00010BD00008C06002010B50248FEF7BDF9B4
:1053C00010BD0000EC02002010B50268294B984285
:1053D0000ED0B0F1804F0BD0274B984208D0274B0E
:1053E000984205D0264B984202D0264B984203D1D2
:1053F00022F070024B681A431E4B984220D0B0F145
:10540000804F1DD01C4B98421AD01C4B984217D08D
:105410001B4B984214D01B4B984211D01A4B984208
:105420000ED01A4B98420BD0194B984208D0194B0A
:10543000984205D0184B984202D0184B984203D19D
:1054400022F44072CB681A4322F080034C6943EA8D
:10545000040202608B68C3620B688362054B98424A
:1054600002D0084B984201D10B69036301234361C9
:1054700010BD000000000140000400400008004092
:10548000000C004000040140004001400044014085
:105490000048014000180040001C0040002000406F
:1054A00030B501F01F05012404FA05F3046A9C439A
:1054B0000462046A01F01F0502FA05F52C43046238
:1054C00030BD30B50C46816821F47F4142EA0325A6
:1054D00025432943816030BD0A46816821F070016F
:1054E00042F00703194381607047000030B5056A38
:1054F00025F001050562026A4368846924F070049E
:1055000024F003040D682C4322F002028D682A4324
:10551000104DA84200D103E00F4DA84206D100BFB4
:1055200022F00802CD682A4322F00402094DA84265
:1055300002D0094DA84207D123F4807323F40073ED
:105540004D692B438D692B43436084614D684563EE
:10555000026230BD000001400004014030B5056A20
:1055600025F010050562026A4368846924F4E0446A
:1055700024F440740D6844EA052422F020028D686A
:1055800042EA0512124DA84200D103E0114DA84293
:1055900007D100BF22F08002CD6842EA051222F056
:1055A00040020B4DA84202D00A4DA84209D123F473
:1055B000806323F400634D6943EA85038D6943EA00
:1055C0008503436084614D688563026230BD0000DD
:1055D000000001400004014030B5056A25F48075E3
:1055E0000562026A4368C46924F0700424F003046D
:1055F0000D682C4322F400728D6842EA0522124D98
:10560000A84200D103E0114DA84207D100BF22F407
:105610000062CD6842EA052222F480620A4DA84267
:1056200002D00A4DA84209D123F4805323F4005339
:105630004D6943EA05138D6943EA05134360C4616C
:105640004D68C563026230BD0000014000040140A6
:1056500030B5056A25F480550562036A4468C2695D
:1056600022F4E04222F440720D6842EA052223F45B
:1056700000538D6843EA0533084DA84202D0084D17
:10568000A84204D124F480444D6944EA851444605E
:10569000C2614D680564036230BD00000000014036
:1056A0000004014030B50B461446026A056A25F035
:1056B00001050562816921F0F00141EA041122F03F
:1056C0000A021A438161026230BD000070B50C46C7
:1056D0001546066A26F0010606628169026A184EBE
:1056E000B04214D0B0F1804F11D0164EB0420ED05F
:1056F000154EB0420BD0154EB04208D0144EB042F9
:1057000005D0144EB04202D0134EB04201D1012652
:1057100000E000261EB121F00301294301E041F021
:10572000010121F0F001F02606EA0316314322F0D0
:105730000A0204F00A0632438161026270BD000071
:10574000000001400004004000080040000C004040
:1057500000040140004001400018004030B50B46F5
:105760001446056A25F0100505628169026A21F474
:10577000704141EA043122F0A00242EA0312816141
:10578000026230BD70B50C461546066A26F010065A
:1057900006628169026A21F4407141EA052121F41F
:1057A00070414FF4704606EA0336314322F0A002FE
:1057B000A02606EA041632438161026270BD70B50C
:1057C0000C461546066A26F480760662C169026AAE
:1057D00021F00301294321F0F001F02606EA031627
:1057E000314322F420624FF4206606EA0426324355
:1057F000C161026270BD70B50C461546066A26F49A
:1058000080560662C169026A21F4407141EA0521AD
:1058100021F470414FF4704606EA0336314322F416
:1058200020424FF4204606EA04363243C161026248
:1058300070BD000010B50248FEF7B8F910BD0000B9
:105840006C03002010B5024800F05CFB10BD0000A6
:10585000AC03002070B50546AC6B0020E085E08409
:105860002046FEF7A2F970BD70B506460025B46B60
:1058700020684069C0F3C01594F83900212805D18B
:1058800025B10020E084204600F060F820684069DF
:10589000C0F3801594F83A00222805D125B10020E4
:1058A000E085204600F032F8E06B40F01000E06345
:1058B0002046FEF77AF970BD70B50546AC6B2868D6
:1058C000006800F48070B0B90020E0852068C068EE
:1058D00020F480702168C8602068406920F00100D1
:1058E000216848612068406920F0400021684861D3
:1058F000202084F83A002046FEF78AFC70BD70B57F
:105900000446A56B2846FEF784FC70BD0168C96893
:1059100021F490710268D1600168496921F00101A8
:1059200002685161202180F83A10704710B5044692
:105930002068C06820F040002168C860202084F8FA
:1059400039002046FEF7D1FC002010BD0168C9686F
:1059500021F0C0010268D160202180F83910704721
:1059600070B5044694F83A0022284AD1A068B0F5F0
:10597000805F13D1A56A206940B920684068C0F3F0
:1059800008002880A06A801CA06219E02068406896
:10599000C0B22880A06A401CA06211E0206938B91A
:1059A00020684068C1B2A26A501CA062117007E072
:1059B0002068406800F07F01A26A501CA06211704C
:1059C000E08D401E80B2E085C8B92068C06820F034
:1059D00020002168C8602068C06820F480702168B9
:1059E000C8602068406920F00100216848612020DB
:1059F00084F83A002046FEF70BFC002070BD002022
:105A0000FCE70220FAE700002DE9F0410446206897
:105A1000006920F44050E168084321680861216969
:105A2000A068084361690843E16940EA010520680C
:105A3000C06849F20C61884328432168C860206827
:105A4000406920F44070A169084321684861E06919
:105A5000B0F5004F7ED1C4492068884203D0C349C5
:105A6000206888425DD1FCF7A3FF00EBC00101EB89
:105A7000001061684900B0FBF1F06421B0FBF1F067
:105A80000601FCF795FF00EBC00101EB0010616817
:105A90004900B0FBF1F7FCF78BFF00EBC00101EB15
:105AA000001061684900B0FBF1F06421B0FBF1F037
:105AB00000EBC00101EB0010A7EB8000322101EBED
:105AC000C0006421B0FBF1F000F0F80006EB4006E6
:105AD000FCF76EFF00EBC00101EB001061684900AC
